:03078E0001160051
:0B076800EF1FAC0670011E4C70F62263
:10071300AB07AA06EB1BAE0270011A4E60097F5AA3
:080723007E0012076880ED2240
:10000300D3EF9400EE940040147D6E7C00ED1D70E0
:0D001300011CED4C70F7EF1F70E61E80E33E
:0100200022BD
:1006EE00C2B77B46AF031BEF70FAD2B7E4FB30B74D
:1006FE00117F017E001200030BEBD3940540EF7FB8
:04070E0000227F0145
:0107120022C4
:0C053C001206EE7F017E001200037FCC4F
:10054800E4FBFAC2B7052AE52A70020529EF1392DF
:10055800B7752900752A06E52A152AAC29700215EF
:10056800294C70F3D2B7EFC313FF0BBB00010AEBA2
:0505780064084A70CE8A
:01057D00225B
:1005C0007D087C00C2B70FBF0000D2B70FBF00008C
:1005D0000FBF0000A2B7E433C43333335480FBE9C8
:1005E000C3134BF97E007F04EF1FAA0670011E4A59
:0D05F00070F6ED1D70011CED4C70C9AF01DF
:0105FD0022DB
:08077E0012053C7F440205480E
:0807860012053C7FBE0205488C
:10072B00E4FFFE12077E1207861205C08F28120502
:06073B00C0EFFEE528FFFF
:010741002295
:04037C00AB07AA061B
:10038000C3EA648094805010751F40EB1B70011A03
:100390006303FF6302FF8003E4F51FAD03AC02ECCF
:1003A0001202298F2B8E2A8D298C28E4FFFE7DC80E
:1003B0007C40AB2BAA2AA929A82812011EE4FBFA2B
:1003C000F9783F12002D120262AA06AB077C037D6A
:1003D000E8AF03AE021202E38F207C037DE8AF0397
:1003E000AE021202E37E007F64CFCDCFCECCCE1220
:1003F00002E38F217C007D64AF03AE021202E37E34
:10040000007F0ACFCDCFCECCCE1202E38F22AE0238
:0B041000AF037C007D0A1202E38D2385
:01041B0022BE
:10075600C2B67F147E00120713D2B67F037E000254
:02076600076822
:10063C00E4FF30B60AEFC3946450040F0080F3EF6C
:10064C00C3946440037F0122E4FF20B60AEFC394F5
:10065C006450040F0080F3EFC3946440037F0122C5
:02066C007F000D
:01066E002269
:10066F00E4FF30B60AEFC3946450040F0080F3E444
:10067F00FF20B60AEFC3946450040F0080F37F018C
:0D068F007E0012076830B6037F01227F0055
:01069C00223B
:10074200E4FDFBED25E0FD12066FEF42050BBB0851
:03075200F2AF05FE
:010755002281
:10057E0012075612063CEF7033FA12074274282AFD
:10058E00F8A6070ABA05F3E5282529FFE433FE7C11
:10059E0000EF252AFFEC3EFEEF252BFFEC3EFEEF93
:1005AE00B52C0CECB5060885281080037F01227F40
:0105BE00003C
:0105BF002219
:10069D00E51075F06484F517E51075F06484E5F0E8
:1006AD0075F00A84F518E51075F00A8485F019E4E3
:0B06BD00F51AF51BF51CF51DF51E22BB
:1006C800759850758920E4F587758DFD758BFDD279
:1006D800ACD2AFD28EF50EF50DF51275111F750857
:0606E8003CC2A7C2A622DD
:030773002430FF30
:080776008F993099FDC2992210
:030023000205FED5
:1005FE00C0E0C0D0309832C29885990F752701E5BA
:10060E000FB474057512018020E50FB468057512DC
:10061E00028016E512B40106850F11751200E5125F
:0E062E00B40206850F08751200D0D0D0E0325D
:10041C001206C812057E12072B8E138F1412037C42
:10042C00E52075F00AA42521F515C395115004D2C9
:10043C00A78002C2A7E510D395084004D2A680027B
:10044C00C2A6E527B401CCC2AFE50F249E601C24E4
:10045C00F36044240E704512057E12069DE51712BA
:10046C000773E518120773E519802412072B8E13F6
:10047C008F1412037CE5202430FF120776E521242B
:10048C0030FF120776E5222430FF120776E523248D
:10049C0030FF1207768005A2A1B392A1E4F527D212
:0404AC00AF02041F78
:100026000202CEE86480F8E933E83360110460F038
:10003600ED33EC337009E8FCE9FDEAFEEBFF220440
:1000460060DED3EB9FEA9EE99DE8C2E78CF0C2F73B
:1000560095F0400CE8CCF8E9CDF9EACEFAEBCFFB07
:1000660012029985D0F05804700320D5B3E80470C5
:10007600075002B2D50202D892D5EC0460F7E4CC60
:10008600C0E0C398F8603B94186008400DD0E0FBD0
:100096000202B0E4FBFAC9FC8028E830E406E4C9B1
:1000A600FBE4CAFCE830E305E4C9CACBFCE8540724
:1000B6006010F8C3E913F9EA13FAEB13FBEC13FC2F
:1000C600D8F130F52FC3E49CFCEF9BFFEE9AFEEDD2
:1000D60099FDD0E0FBEF4E4D4C701222DB0302027D
:1000E600D5EC2CFCEF33FFEE33FEED33FDED30E7C0
:1000F600EB0202B0EF2BFFEE3AFEED39FDD0E0FB4E
:1001060050130BBB00030202D8ED13FDEE13FEEFF6
:0801160013FFEC13FC0202B020
:10011E00EC4D6011E8497017ED33EC3304600DE4DB
:10012E00FCFFFEFD22E933E8330470F80202CE1222
:10013E00029958046009E4CC248150062850090223
:10014E0002D82840030202D5C0E0EB4A7044B980C1
:10015E0006D0E0FB0202C4EF4E701CBD8008EBFF20
:10016E00EAFEE9FD80EBE98DF0A4FEE5F002020760
:10017E00E9CDF9EAFEEBFFEF89F0A4FCE5F0CE89BC
:10018E00F0A42EFFE435F0CD89F0A42DFEE435F079
:10019E008067EF4E7005BD80D780C3EF8BF0A4ACA7
:1001AE00F0EE8BF0A42CFCE435F0F8EF8AF0A42CE2
:1001BE00E5F038FCE433CB8DF0A42CFCE5F03BF8F5
:1001CE00EE8AF0A42CFCE5F038F8E433CF89F0A4E5
:1001DE002CFCE5F038CF3400CE89F0A42FFFE5F0EB
:1001EE003EFEE433C98DF0A42EFEE5F039CD8AF043
:1001FE00A42FFFE5F03EFEE43DFD33D0E0FB5007BB
:10020E000BBB000F0202D8EC2CFCEF33FFEE33FEDB
:06021E00ED33FD0202B009
:1002240075F020800E75F010800575F0087D007E55
:10023400007F003392D530D503120319EC334010FC
:10024400EF33FFEE33FEED33FDEC33FCD5F0ED225E
:0E025400E5F0247EA2D513CC92E7CDCEFF229A
:10026200EDD2E7CD33EC3392D524814006E4FFFE94
:10027200FDFC22FCE4CFCECDCC24E0501174FF80F3
:10028200EDC3CC13CCCD13CDCE13CECF13CF047090
:07029200F030D5DE02031974
:10029900E9D2E7C933E833F892D5EDD2E7CD33ECAB
:0702A90033FC5002B2D52224
:1002B000EC30E7100FBF000C0EBE00080DBD0004AF
:1002C0000BEB6014A2D5EB13FCED92E7FD2274FF5B
:1002D000FCFDFEFF22E480F8A2D574FF13FC7D80B4
:0302E000E480EFC8
:030000000204B047
:0C04B000787FE4F6D8FD75812C0204F77B
:1002E300C2D5EC30E709B2D5E4C39DFDE49CFCEE36
:1002F30030E715B2D5E4C39FFFE49EFE120327C384
:10030300E49DFDE49CFC800312032730D507C3E47E
:060313009FFFE49EFE22A4
:0E031900C3E49FFFE49EFEE49DFDE49CFC22F5
:1004BC0002041CE493A3F8E493A34003F68001F236
:1004CC0008DFF48029E493A3F85407240CC8C33341
:1004DC00C4540F4420C8834004F456800146F6DF10
:1004EC00E4800B010204081020408090078EE47E0B
:1004FC00019360BCA3FF543F30E509541FFEE49305
:10050C00A360010ECF54C025E060A840B8E493A3CB
:10051C00FAE493A3F8E493A3C8C582C8CAC583CAF6
:10052C00F0A3C8C582C8CAC583CADFE9DEE780BEAE
:010791000067
:10032700BC000BBE0029EF8DF084FFADF022E4CCBA
:10033700F875F008EF2FFFEE33FEEC33FCEE9DEC83
:10034700984005FCEE9DFE0FD5F0E9E4CEFD22EDC9
:10035700F8F5F0EE8420D21CFEADF075F008EF2F13
:10036700FFED33FD4007985006D5F0F222C398FD04
:050377000FD5F0EA22A1
:00000001FF
