:0307B90001130029
:0B079300EF1FAC0670011E4C70F62238
:10070B00AB07AA06EB1BAE0270011A4E60097F5AAB
:08071B007E0012079380ED221D
:10000300D3EF9400EE940040147D6E7C00ED1D70E0
:0D001300011CED4C70F7EF1F70E61E80E33E
:0100200022BD
:1006E600C2B77B46AF031BEF70FAD2B7E4FB30B755
:1006F600117F017E001200030BEBD3940540EF7FC0
:0407060000227F014D
:01070A0022CC
:0C0598001206E67F017E001200037FCCFB
:1005A400E4FBFAC2B70527E52770020526EF13928C
:1005B400B7752600752706E5271527AC26700215A2
:1005C400264C70F3D2B7EFC313FF0BBB00010AEB49
:0505D40064084A70CE2E
:0105D90022FF
:10061C007D087C00C2B70FBF0000D2B70FBF00002F
:10062C000FBF0000A2B7E433C43333335480FBE96B
:10063C00C3134BF97E007F04EF1FAA0670011E4AFC
:0D064C0070F6ED1D70011CED4C70C9AF0182
:01065900227E
:0807A9001205987F440205A42B
:0807B1001205987FBE0205A4A9
:10072300E4FFFE1207A91207B112061C8F25120659
:060733001CEFFEE525FFAE
:01073900229D
:04046C00AB07AA062A
:10047000C3EA648094805010751C40EB1B70011A15
:100480006303FF6302FF8003E4F51CAD03AC02ECE1
:100490001202298F288E278D268C25E4FFFE7DC829
:1004A0007C40AB28AA27A926A82512011EE4FBFA46
:1004B000F9783F12002D120262AA06AB077C037D79
:1004C000E8AF03AE021203298F1D7C037DE8AF0362
:1004D000AE021203297E007F64CFCDCFCECCCE12E8
:1004E00003298F1E7C007D64AF03AE021203297EB8
:1004F000007F0ACFCDCFCECCCE1203298F1FAE0204
:0B050000AF037C007D0A1203298D2050
:01050B0022CD
:10076400C2B67F147E0012070BD2B67F037E00024E
:020774000793E9
:10065A00E4FF30B60AEFC3946450040F0080F3EF4E
:10066A00C3946440037F0122E4FF20B60AEFC394D7
:10067A006450040F0080F3EFC3946440037F0122A7
:02068A007F00EF
:01068C00224B
:10068D00E4FF30B60AEFC3946450040F0080F3E426
:10069D00FF20B60AEFC3946450040F0080F37F016E
:0D06AD007E0012079330B6037F01227F000C
:0106BA00221D
:10075000E4FDFBED25E0FD12068DEF42050BBB0825
:03076000F2AF05F0
:010763002273
:1005DA0012076412065AEF7033FA12075074252A6A
:1005EA00F8A6070ABA05F3E5252526FFE433FE7CBB
:1005FA0000EF2527FFEC3EFEEF2528FFEC3EFEEF3D
:10060A00B5290CECB5060885250F80037F01227FEA
:01061A0000DF
:01061B0022BC
:1006BB00E50F75F06484F514E50F75F06484E5F0CF
:1006CB0075F00A84F515E50F75F00A8485F016E4CC
:0B06DB00F517F518F519F51AF51B22AC
:10073A00759850758920E4F587758DFD758BFDD206
:06074A00ACD2AFD28E22FA
:03079E002430FF05
:0807A1008F993099FDC29922E5
:100776009000011202FC24D0FF1202E324D02FFFC6
:010786002250
:030023000207874A
:0C078700309808C29885990E7524013244
:1003C20012073A1205DAC3E51295107480F8651126
:1003D200985004D2A78002C2A7E524B401E5C2AFB7
:1003E200E50E249F602024FE604C24F46044240D1A
:1003F20070481205DA1206BBE51412079EE51512C3
:10040200079EE51680241207238E118F1212046CA8
:10041200E51D2430FF1207A1E51E2430FF1207A1BB
:10042200E51F2430FF1207A1E5202430FF1207A1A7
:100432008030D2A1802CC2A18028740A2509F8A696
:100442000E0509E509B4031AE4F509E50C7B007A07
:1004520000790AB474071207768F108005120776A6
:0A0462008F08E4F524D2AF0203C5B1
:100026000202CEE86480F8E933E83360110460F038
:10003600ED33EC337009E8FCE9FDEAFEEBFF220440
:1000460060DED3EB9FEA9EE99DE8C2E78CF0C2F73B
:1000560095F0400CE8CCF8E9CDF9EACEFAEBCFFB07
:1000660012029985D0F05804700320D5B3E80470C5
:10007600075002B2D50202D892D5EC0460F7E4CC60
:10008600C0E0C398F8603B94186008400DD0E0FBD0
:100096000202B0E4FBFAC9FC8028E830E406E4C9B1
:1000A600FBE4CAFCE830E305E4C9CACBFCE8540724
:1000B6006010F8C3E913F9EA13FAEB13FBEC13FC2F
:1000C600D8F130F52FC3E49CFCEF9BFFEE9AFEEDD2
:1000D60099FDD0E0FBEF4E4D4C701222DB0302027D
:1000E600D5EC2CFCEF33FFEE33FEED33FDED30E7C0
:1000F600EB0202B0EF2BFFEE3AFEED39FDD0E0FB4E
:1001060050130BBB00030202D8ED13FDEE13FEEFF6
:0801160013FFEC13FC0202B020
:10011E00EC4D6011E8497017ED33EC3304600DE4DB
:10012E00FCFFFEFD22E933E8330470F80202CE1222
:10013E00029958046009E4CC248150062850090223
:10014E0002D82840030202D5C0E0EB4A7044B980C1
:10015E0006D0E0FB0202C4EF4E701CBD8008EBFF20
:10016E00EAFEE9FD80EBE98DF0A4FEE5F002020760
:10017E00E9CDF9EAFEEBFFEF89F0A4FCE5F0CE89BC
:10018E00F0A42EFFE435F0CD89F0A42DFEE435F079
:10019E008067EF4E7005BD80D780C3EF8BF0A4ACA7
:1001AE00F0EE8BF0A42CFCE435F0F8EF8AF0A42CE2
:1001BE00E5F038FCE433CB8DF0A42CFCE5F03BF8F5
:1001CE00EE8AF0A42CFCE5F038F8E433CF89F0A4E5
:1001DE002CFCE5F038CF3400CE89F0A42FFFE5F0EB
:1001EE003EFEE433C98DF0A42EFEE5F039CD8AF043
:1001FE00A42FFFE5F03EFEE43DFD33D0E0FB5007BB
:10020E000BBB000F0202D8EC2CFCEF33FFEE33FEDB
:06021E00ED33FD0202B009
:1002240075F020800E75F010800575F0087D007E55
:10023400007F003392D530D50312035FEC334010B6
:10024400EF33FFEE33FEED33FDEC33FCD5F0ED225E
:0E025400E5F0247EA2D513CC92E7CDCEFF229A
:10026200EDD2E7CD33EC3392D524814006E4FFFE94
:10027200FDFC22FCE4CFCECDCC24E0501174FF80F3
:10028200EDC3CC13CCCD13CDCE13CECF13CF047090
:07029200F030D5DE02035F2E
:10029900E9D2E7C933E833F892D5EDD2E7CD33ECAB
:0702A90033FC5002B2D52224
:1002B000EC30E7100FBF000C0EBE00080DBD0004AF
:1002C0000BEB6014A2D5EB13FCED92E7FD2274FF5B
:1002D000FCFDFEFF22E480F8A2D574FF13FC7D80B4
:0302E000E480EFC8
:0300000002050CEA
:0C050C00787FE4F6D8FD758129020553C4
:1002E300BB010689828A83E0225002E722BBFE0219
:0902F300E32289828A83E493224C
:1002FC00BB010CE58229F582E5833AF583E02250B7
:10030C0006E92582F8E622BBFE06E92582F8E22200
:0D031C00E58229F582E5833AF583E493221A
:10032900C2D5EC30E709B2D5E4C39DFDE49CFCEEEF
:1003390030E715B2D5E4C39FFFE49EFE12036DC3F7
:10034900E49DFDE49CFC800312036D30D507C3E4F2
:060359009FFFE49EFE225E
:0E035F00C3E49FFFE49EFEE49DFDE49CFC22AF
:100518000203C2E493A3F8E493A34003F68001F234
:1005280008DFF48029E493A3F85407240CC8C333E4
:10053800C4540F4420C8834004F456800146F6DFB3
:10054800E4800B01020408102040809007B9E47E83
:10055800019360BCA3FF543F30E509541FFEE493A8
:10056800A360010ECF54C025E060A840B8E493A36F
:10057800FAE493A3F8E493A3C8C582C8CAC583CA9A
:10058800F0A3C8C582C8CAC583CADFE9DEE780BE52
:0107BC00003C
:10036D00BC000BBE0029EF8DF084FFADF022E4CC74
:10037D00F875F008EF2FFFEE33FEEC33FCEE9DEC3D
:10038D00984005FCEE9DFE0FD5F0E9E4CEFD22ED83
:10039D00F8F5F0EE8420D21CFEADF075F008EF2FCD
:1003AD00FFED33FD4007985006D5F0F222C398FDBE
:0503BD000FD5F0EA225B
:00000001FF
